:02000000802E50
:02000300210DCD
:1000300011EB317C318F7137B42007FF31E9318406
:10004000801CB410EFFF31E931A074C031EE78307C
:100050007C047D0371DEDDFC7137F608DCF478008A
:1000600079007A007B0020A0FD71DE30A00280EED6
:1000700020A00280FBD2AFD2A8D28C31E931BC20C3
:10008000B40B71EF30B402800471EF058AA88A3195
:100090004D31CD313830A102800E20A1FD71DE300E
:1000A000A1028004C28C80B6EFB41016E8B533000C
:1000B00040CDE9B532C9EAB531C5EBB530C1C28C26
:1000C0008012E8B409B9E9B409B5EAB409B1EBB4EE
:1000D00009ADC28CC2AF31E971DE31B171DE20A24F
:1000E000F320A2FD71DE30A2FD013074FF905000BC
:1000F000F0905800F0906000F0906800F0D2A0D22C
:10010000A1D2B2758915758C00758A002230B2FFB4
:1001100020B2FD71DE2089FD780079007A007B0035
:10012000758A0031CD740E31EE740031FB740F31DD
:10013000EE740031FB313832E8905000F0E990580D
:1001400000F0EA906000F0EB906800F022E8B40A5A
:10015000004027B40B0609758A01800709758C00D9
:05016000758A00A88A69
:10016500E9B40A1079000AEAB40A097A000BEBB47B
:100175000A027B00E8F82290700031DC31E922C0E8
:10018500E0748031EE7101D0E022C0E0748031EE80
:1001950051B274C031EE51D9D0E022C0E074803143
:1001A500EE514C74C431EE5172D0E022C0E074803F
:1001B50031EE518FD0E022C0E0748031EE510874E9
:1001C500C031EE512BD0E022C0E074CA31EE71226D
:1001D500740C31EED0E022743831EE740C31EE74CB
:1001E5000631EE22740131EE22907000D2B3C2B511
:1001F500F0C2B371CD22907000D2B3D2B5F0C2B3C4
:1002050071CD22C000C0E0780090021FE893600520
:1002150031FB0880F4D0E0D0002254656E3A204DC1
:100225006920676F6900C000C0E07800900242E86D
:1002350093600531FB0880F4D0E0D00022536F2095
:100245006C756F6E673A00C000C0E078009002637D
:10025500E893600531FB0880F4D0E0D000224E68B9
:10026500617020736F206C756F6E673A00C000C0B7
:10027500E07800900289E893600531FB0880F4D0AE
:10028500E0D000222F3939393900C000C0E07800AC
:0A0295009002A6E893600531FB0813
:10029F0080F4D0E0D0002244612064656D20647545
:1002AF00212000C000C0E078009002C9E8936005EB
:1002BF0031FB0880F4D0E0D000224D6F69206368D5
:1002CF006F6E2063686520646F00C000C0E0780027
:1002DF009002F0E893600531FB0880F4D0E0D00085
:1002EF00224D6F64653A204D3120686F6163204D58
:1002FF003200C000C0E07800900318E89360053129
:10030F00FB0880F4D0E0D0002244656D2074752086
:10031F00646F00EB243031FBEA243031FBE92430E9
:10032F0031FBE8243031FB227590FF74EF7904F52F
:10033F00902320900571DE30901C20910571DE30E6
:10034F00912020920571DE30922420930571DE30CA
:10035F009328D9DB80D530944B30954C30964D3067
:10036F00974E3094333095343096353097463094DD
:10037F001B30951C30961D309743309440309508B4
:10038F0030963A30973780FE7430802C7431802845
:10039F0074328024743380207434801C7435801838
:1003AF0074368014743780107438800C7439800858
:1003BF00741080097420800531FBC3943022C0076C
:1003CF00C0067E027FFADFFEDEFAD006D00722C01B
:1003DF0007C0067FC87EFADEFEDFFAD006D00722FE
:1003EF00C0067E08758D3C758BB0D28E308FFDC2E6
:0803FF008EC28FDEEFD0062252
:00000001FF
